{
  "contractName": "Zap",
  "abi": [
    {
      "inputs": [],
      "payable": false,
      "stateMutability": "nonpayable",
      "type": "constructor"
    },
    {
      "anonymous": false,
      "inputs": [
        {
          "indexed": false,
          "internalType": "string",
          "name": "fileId",
          "type": "string"
        },
        {
          "indexed": false,
          "internalType": "string",
          "name": "fileHash",
          "type": "string"
        },
        {
          "indexed": false,
          "internalType": "uint256",
          "name": "fileSize",
          "type": "uint256"
        },
        {
          "indexed": false,
          "internalType": "string",
          "name": "fileType",
          "type": "string"
        },
        {
          "indexed": false,
          "internalType": "string",
          "name": "fileName",
          "type": "string"
        },
        {
          "indexed": false,
          "internalType": "uint256",
          "name": "uploadTime",
          "type": "uint256"
        }
      ],
      "name": "FileUploaded",
      "type": "event"
    },
    {
      "constant": true,
      "inputs": [],
      "name": "name",
      "outputs": [
        {
          "internalType": "string",
          "name": "",
          "type": "string"
        }
      ],
      "payable": false,
      "stateMutability": "view",
      "type": "function"
    },
    {
      "constant": true,
      "inputs": [
        {
          "internalType": "address",
          "name": "",
          "type": "address"
        },
        {
          "internalType": "uint256",
          "name": "",
          "type": "uint256"
        }
      ],
      "name": "users",
      "outputs": [
        {
          "internalType": "string",
          "name": "fileId",
          "type": "string"
        },
        {
          "internalType": "string",
          "name": "fileHash",
          "type": "string"
        },
        {
          "internalType": "uint256",
          "name": "fileSize",
          "type": "uint256"
        },
        {
          "internalType": "string",
          "name": "fileType",
          "type": "string"
        },
        {
          "internalType": "string",
          "name": "fileName",
          "type": "string"
        },
        {
          "internalType": "uint256",
          "name": "uploadTime",
          "type": "uint256"
        }
      ],
      "payable": false,
      "stateMutability": "view",
      "type": "function"
    },
    {
      "constant": false,
      "inputs": [
        {
          "internalType": "string",
          "name": "_fileId",
          "type": "string"
        },
        {
          "internalType": "string",
          "name": "_fileHash",
          "type": "string"
        },
        {
          "internalType": "uint256",
          "name": "_fileSize",
          "type": "uint256"
        },
        {
          "internalType": "string",
          "name": "_fileType",
          "type": "string"
        },
        {
          "internalType": "string",
          "name": "_fileName",
          "type": "string"
        }
      ],
      "name": "uploadFile",
      "outputs": [
        {
          "internalType": "string",
          "name": "",
          "type": "string"
        },
        {
          "internalType": "string",
          "name": "",
          "type": "string"
        },
        {
          "internalType": "uint256",
          "name": "",
          "type": "uint256"
        },
        {
          "internalType": "string",
          "name": "",
          "type": "string"
        },
        {
          "internalType": "string",
          "name": "",
          "type": "string"
        },
        {
          "internalType": "uint256",
          "name": "",
          "type": "uint256"
        }
      ],
      "payable": false,
      "stateMutability": "nonpayable",
      "type": "function"
    },
    {
      "constant": true,
      "inputs": [],
      "name": "getCount",
      "outputs": [
        {
          "internalType": "uint256",
          "name": "",
          "type": "uint256"
        }
      ],
      "payable": false,
      "stateMutability": "view",
      "type": "function"
    },
    {
      "constant": true,
      "inputs": [
        {
          "internalType": "uint256",
          "name": "_index",
          "type": "uint256"
        }
      ],
      "name": "getFilesofUser",
      "outputs": [
        {
          "internalType": "string",
          "name": "",
          "type": "string"
        },
        {
          "internalType": "string",
          "name": "",
          "type": "string"
        },
        {
          "internalType": "uint256",
          "name": "",
          "type": "uint256"
        },
        {
          "internalType": "string",
          "name": "",
          "type": "string"
        },
        {
          "internalType": "string",
          "name": "",
          "type": "string"
        },
        {
          "internalType": "uint256",
          "name": "",
          "type": "uint256"
        }
      ],
      "payable": false,
      "stateMutability": "view",
      "type": "function"
    },
    {
      "constant": false,
      "inputs": [
        {
          "internalType": "string",
          "name": "_fileId",
          "type": "string"
        }
      ],
      "name": "removeHash",
      "outputs": [],
      "payable": false,
      "stateMutability": "nonpayable",
      "type": "function"
    }
  ],
  "bytecode": "0x60806040526040518060400160405280600381526020017f5a61700000000000000000000000000000000000000000000000000000000000815250600090805190602001906200005192919062000066565b503480156200005f57600080fd5b5062000115565b828054600181600116156101000203166002900490600052602060002090601f016020900481019282601f10620000a957805160ff1916838001178555620000da565b82800160010185558215620000da579182015b82811115620000d9578251825591602001919060010190620000bc565b5b509050620000e99190620000ed565b5090565b6200011291905b808211156200010e576000816000905550600101620000f4565b5090565b90565b611bd680620001256000396000f3fe608060405234801561001057600080fd5b50600436106100625760003560e01c806306fdde031461006757806354a02f9e146100ea578063a4b6e24e14610303578063a87d942c146104fc578063b51efc6f1461051a578063fa59d1991461096f575b600080fd5b61006f610a2a565b6040518080602001828103825283818151815260200191508051906020019080838360005b838110156100af578082015181840152602081019050610094565b50505050905090810190601f1680156100dc5780820380516001836020036101000a031916815260200191505b509250505060405180910390f35b6101366004803603604081101561010057600080fd5b81019080803573ffffffffffffffffffffffffffffffffffffffff16906020019092919080359060200190929190505050610ac8565b604051808060200180602001878152602001806020018060200186815260200185810385528b818151815260200191508051906020019080838360005b8381101561018e578082015181840152602081019050610173565b50505050905090810190601f1680156101bb5780820380516001836020036101000a031916815260200191505b5085810384528a818151815260200191508051906020019080838360005b838110156101f45780820151818401526020810190506101d9565b50505050905090810190601f1680156102215780820380516001836020036101000a031916815260200191505b50858103835288818151815260200191508051906020019080838360005b8381101561025a57808201518184015260208101905061023f565b50505050905090810190601f1680156102875780820380516001836020036101000a031916815260200191505b50858103825287818151815260200191508051906020019080838360005b838110156102c05780820151818401526020810190506102a5565b50505050905090810190601f1680156102ed5780820380516001836020036101000a031916815260200191505b509a505050505050505050505060405180910390f35b61032f6004803603602081101561031957600080fd5b8101908080359060200190929190505050610d7e565b604051808060200180602001878152602001806020018060200186815260200185810385528b818151815260200191508051906020019080838360005b8381101561038757808201518184015260208101905061036c565b50505050905090810190601f1680156103b45780820380516001836020036101000a031916815260200191505b5085810384528a818151815260200191508051906020019080838360005b838110156103ed5780820151818401526020810190506103d2565b50505050905090810190601f16801561041a5780820380516001836020036101000a031916815260200191505b50858103835288818151815260200191508051906020019080838360005b83811015610453578082015181840152602081019050610438565b50505050905090810190601f1680156104805780820380516001836020036101000a031916815260200191505b50858103825287818151815260200191508051906020019080838360005b838110156104b957808201518184015260208101905061049e565b50505050905090810190601f1680156104e65780820380516001836020036101000a031916815260200191505b509a505050505050505050505060405180910390f35b6105046110de565b6040518082815260200191505060405180910390f35b6107a2600480360360a081101561053057600080fd5b810190808035906020019064010000000081111561054d57600080fd5b82018360208201111561055f57600080fd5b8035906020019184600183028401116401000000008311171561058157600080fd5b91908080601f016020809104026020016040519081016040528093929190818152602001838380828437600081840152601f19601f820116905080830192505050505050509192919290803590602001906401000000008111156105e457600080fd5b8201836020820111156105f657600080fd5b8035906020019184600183028401116401000000008311171561061857600080fd5b91908080601f016020809104026020016040519081016040528093929190818152602001838380828437600081840152601f19601f820116905080830192505050505050509192919290803590602001909291908035906020019064010000000081111561068557600080fd5b82018360208201111561069757600080fd5b803590602001918460018302840111640100000000831117156106b957600080fd5b91908080601f016020809104026020016040519081016040528093929190818152602001838380828437600081840152601f19601f8201169050808301925050505050505091929192908035906020019064010000000081111561071c57600080fd5b82018360208201111561072e57600080fd5b8035906020019184600183028401116401000000008311171561075057600080fd5b91908080601f016020809104026020016040519081016040528093929190818152602001838380828437600081840152601f19601f820116905080830192505050505050509192919290505050611128565b604051808060200180602001878152602001806020018060200186815260200185810385528b818151815260200191508051906020019080838360005b838110156107fa5780820151818401526020810190506107df565b50505050905090810190601f1680156108275780820380516001836020036101000a031916815260200191505b5085810384528a818151815260200191508051906020019080838360005b83811015610860578082015181840152602081019050610845565b50505050905090810190601f16801561088d5780820380516001836020036101000a031916815260200191505b50858103835288818151815260200191508051906020019080838360005b838110156108c65780820151818401526020810190506108ab565b50505050905090810190601f1680156108f35780820380516001836020036101000a031916815260200191505b50858103825287818151815260200191508051906020019080838360005b8381101561092c578082015181840152602081019050610911565b50505050905090810190601f1680156109595780820380516001836020036101000a031916815260200191505b509a505050505050505050505060405180910390f35b610a286004803603602081101561098557600080fd5b81019080803590602001906401000000008111156109a257600080fd5b8201836020820111156109b457600080fd5b803590602001918460018302840111640100000000831117156109d657600080fd5b91908080601f016020809104026020016040519081016040528093929190818152602001838380828437600081840152601f19601f82011690508083019250505050505050919291929050505061185d565b005b60008054600181600116156101000203166002900480601f016020809104026020016040519081016040528092919081815260200182805460018160011615610100020316600290048015610ac05780601f10610a9557610100808354040283529160200191610ac0565b820191906000526020600020905b815481529060010190602001808311610aa357829003601f168201915b505050505081565b60016020528160005260406000208181548110610ae157fe5b906000526020600020906006020160009150915050806000018054600181600116156101000203166002900480601f016020809104026020016040519081016040528092919081815260200182805460018160011615610100020316600290048015610b8e5780601f10610b6357610100808354040283529160200191610b8e565b820191906000526020600020905b815481529060010190602001808311610b7157829003601f168201915b505050505090806001018054600181600116156101000203166002900480601f016020809104026020016040519081016040528092919081815260200182805460018160011615610100020316600290048015610c2c5780601f10610c0157610100808354040283529160200191610c2c565b820191906000526020600020905b815481529060010190602001808311610c0f57829003601f168201915b505050505090806002015490806003018054600181600116156101000203166002900480601f016020809104026020016040519081016040528092919081815260200182805460018160011615610100020316600290048015610cd05780601f10610ca557610100808354040283529160200191610cd0565b820191906000526020600020905b815481529060010190602001808311610cb357829003601f168201915b505050505090806004018054600181600116156101000203166002900480601f016020809104026020016040519081016040528092919081815260200182805460018160011615610100020316600290048015610d6e5780601f10610d4357610100808354040283529160200191610d6e565b820191906000526020600020905b815481529060010190602001808311610d5157829003601f168201915b5050505050908060050154905086565b6060806000606080600080871015610d9557600080fd5b610d9d611a7e565b600160003373ffffffffffffffffffffffffffffffffffffffff1673ffffffffffffffffffffffffffffffffffffffff1681526020019081526020016000208881548110610de757fe5b90600052602060002090600602016040518060c0016040529081600082018054600181600116156101000203166002900480601f016020809104026020016040519081016040528092919081815260200182805460018160011615610100020316600290048015610e995780601f10610e6e57610100808354040283529160200191610e99565b820191906000526020600020905b815481529060010190602001808311610e7c57829003601f168201915b50505050508152602001600182018054600181600116156101000203166002900480601f016020809104026020016040519081016040528092919081815260200182805460018160011615610100020316600290048015610f3b5780601f10610f1057610100808354040283529160200191610f3b565b820191906000526020600020905b815481529060010190602001808311610f1e57829003601f168201915b5050505050815260200160028201548152602001600382018054600181600116156101000203166002900480601f016020809104026020016040519081016040528092919081815260200182805460018160011615610100020316600290048015610fe75780601f10610fbc57610100808354040283529160200191610fe7565b820191906000526020600020905b815481529060010190602001808311610fca57829003601f168201915b50505050508152602001600482018054600181600116156101000203166002900480601f0160208091040260200160405190810160405280929190818152602001828054600181600116156101000203166002900480156110895780601f1061105e57610100808354040283529160200191611089565b820191906000526020600020905b81548152906001019060200180831161106c57829003601f168201915b505050505081526020016005820154815250509050806000015181602001518260400151836060015184608001518560a001518595508494508292508191509650965096509650965096505091939550919395565b6000600160003373ffffffffffffffffffffffffffffffffffffffff1673ffffffffffffffffffffffffffffffffffffffff16815260200190815260200160002080549050905090565b60608060006060806000808a511161113f57600080fd5b60008b511161114d57600080fd5b600088511161115b57600080fd5b600087511161116957600080fd5b600073ffffffffffffffffffffffffffffffffffffffff163373ffffffffffffffffffffffffffffffffffffffff1614156111a357600080fd5b600089116111b057600080fd5b600160003373ffffffffffffffffffffffffffffffffffffffff1673ffffffffffffffffffffffffffffffffffffffff1681526020019081526020016000206040518060c001604052808d81526020018c81526020018b81526020018a815260200189815260200142815250908060018154018082558091505090600182039060005260206000209060060201600090919290919091506000820151816000019080519060200190611263929190611ab4565b506020820151816001019080519060200190611280929190611ab4565b506040820151816002015560608201518160030190805190602001906112a7929190611ab4565b5060808201518160040190805190602001906112c4929190611ab4565b5060a082015181600501555050507f6c1f9a68defcb9c01c4d23ec8500356148eb1397f05f30b04bf432fdc596bda28b8b8b8b8b42604051808060200180602001878152602001806020018060200186815260200185810385528b818151815260200191508051906020019080838360005b83811015611351578082015181840152602081019050611336565b50505050905090810190601f16801561137e5780820380516001836020036101000a031916815260200191505b5085810384528a818151815260200191508051906020019080838360005b838110156113b757808201518184015260208101905061139c565b50505050905090810190601f1680156113e45780820380516001836020036101000a031916815260200191505b50858103835288818151815260200191508051906020019080838360005b8381101561141d578082015181840152602081019050611402565b50505050905090810190601f16801561144a5780820380516001836020036101000a031916815260200191505b50858103825287818151815260200191508051906020019080838360005b83811015611483578082015181840152602081019050611468565b50505050905090810190601f1680156114b05780820380516001836020036101000a031916815260200191505b509a505050505050505050505060405180910390a16000600160003373ffffffffffffffffffffffffffffffffffffffff1673ffffffffffffffffffffffffffffffffffffffff168152602001908152602001600020805490509050611514611a7e565b600160003373ffffffffffffffffffffffffffffffffffffffff1673ffffffffffffffffffffffffffffffffffffffff168152602001908152602001600020600183038154811061156157fe5b90600052602060002090600602016040518060c0016040529081600082018054600181600116156101000203166002900480601f0160208091040260200160405190810160405280929190818152602001828054600181600116156101000203166002900480156116135780601f106115e857610100808354040283529160200191611613565b820191906000526020600020905b8154815290600101906020018083116115f657829003601f168201915b50505050508152602001600182018054600181600116156101000203166002900480601f0160208091040260200160405190810160405280929190818152602001828054600181600116156101000203166002900480156116b55780601f1061168a576101008083540402835291602001916116b5565b820191906000526020600020905b81548152906001019060200180831161169857829003601f168201915b5050505050815260200160028201548152602001600382018054600181600116156101000203166002900480601f0160208091040260200160405190810160405280929190818152602001828054600181600116156101000203166002900480156117615780601f1061173657610100808354040283529160200191611761565b820191906000526020600020905b81548152906001019060200180831161174457829003601f168201915b50505050508152602001600482018054600181600116156101000203166002900480601f0160208091040260200160405190810160405280929190818152602001828054600181600116156101000203166002900480156118035780601f106117d857610100808354040283529160200191611803565b820191906000526020600020905b8154815290600101906020018083116117e657829003601f168201915b505050505081526020016005820154815250509050806000015181602001518260400151836060015184608001518560a0015185955084945082925081915097509750975097509750975050509550955095509550955095565b6000600160003373ffffffffffffffffffffffffffffffffffffffff1673ffffffffffffffffffffffffffffffffffffffff168152602001908152602001600020905060008090505b8180549050811015611a7957826040516020018082805190602001908083835b602083106118e957805182526020820191506020810190506020830392506118c6565b6001836020036101000a0380198251168184511680821785525050505050509050019150506040516020818303038152906040528051906020012082828154811061193057fe5b9060005260206000209060060201600001604051602001808280546001816001161561010002031660029004801561199f5780601f1061197d57610100808354040283529182019161199f565b820191906000526020600020905b81548152906001019060200180831161198b575b5050915050604051602081830303815290604052805190602001201415611a6c57600160003373ffffffffffffffffffffffffffffffffffffffff1673ffffffffffffffffffffffffffffffffffffffff1681526020019081526020016000208181548110611a0a57fe5b906000526020600020906006020160008082016000611a299190611b34565b600182016000611a399190611b34565b6002820160009055600382016000611a519190611b34565b600482016000611a619190611b34565b600582016000905550505b80806001019150506118a6565b505050565b6040518060c001604052806060815260200160608152602001600081526020016060815260200160608152602001600081525090565b828054600181600116156101000203166002900490600052602060002090601f016020900481019282601f10611af557805160ff1916838001178555611b23565b82800160010185558215611b23579182015b82811115611b22578251825591602001919060010190611b07565b5b509050611b309190611b7c565b5090565b50805460018160011615610100020316600290046000825580601f10611b5a5750611b79565b601f016020900490600052602060002090810190611b789190611b7c565b5b50565b611b9e91905b80821115611b9a576000816000905550600101611b82565b5090565b9056fea265627a7a723158209d0e6a5866cb85d8a58348af2cd8c583844609ca17f99ebed0c38381209d21bd64736f6c63430005100032",
  "source": "pragma solidity >=0.4.21 <0.7.0;\r\n\r\ncontract Zap{\r\n    \r\n    string public name = 'Zap';\r\n    \r\n    \r\n    struct File {\r\n        string fileId;\r\n        string fileHash;\r\n        uint fileSize;\r\n        string fileType;\r\n        string fileName;\r\n        uint uploadTime;\r\n    }\r\n    \r\n\r\n    \r\n    mapping(address => File[]) public users;\r\n    \r\n    \r\n     event FileUploaded(\r\n        string fileId,\r\n        string fileHash,\r\n        uint fileSize,\r\n        string fileType,\r\n        string fileName,\r\n        uint uploadTime\r\n  );\r\n  \r\n  constructor() public {\r\n  }\r\n    \r\n  function uploadFile(string memory _fileId,string memory _fileHash, uint _fileSize, string memory _fileType, string memory _fileName) public returns(string memory,string memory,uint, string memory,string memory,uint) {\r\n\r\n    require(bytes(_fileHash).length > 0);\r\n    require(bytes(_fileId).length > 0);\r\n\r\n    require(bytes(_fileType).length > 0);\r\n\r\n    require(bytes(_fileName).length > 0);\r\n\r\n    require(msg.sender!=address(0));\r\n\r\n    require(_fileSize>0);\r\n    \r\n    users[msg.sender].push(File(_fileId,_fileHash, _fileSize, _fileType, _fileName, now));\r\n\r\n\r\n    emit FileUploaded(_fileId,_fileHash, _fileSize, _fileType, _fileName,now);\r\n\r\n\r\n    uint length = users[msg.sender].length;\r\n\r\n    File memory file = users[msg.sender][length-1];\r\n      \r\n    return (file.fileId,file.fileHash,file.fileSize,file.fileType,file.fileName,file.uploadTime);\r\n  }\r\n  \r\n  function getCount() public view returns(uint){\r\n      \r\n    return users[msg.sender].length;\r\n  }\r\n  \r\n  function getFilesofUser(uint _index) public view returns(string memory,string memory,uint, string memory,string memory,uint) {\r\n      \r\n      \r\n      require(_index>=0);\r\n      \r\n      File memory file = users[msg.sender][_index];\r\n      \r\n      return (file.fileId,file.fileHash,file.fileSize,file.fileType,file.fileName,file.uploadTime);\r\n    \r\n  }\r\n\r\n    function removeHash(string memory _fileId) public {\r\n      \r\n         File[] storage f = users[msg.sender];\r\n  \r\n         for (uint i = 0; i < f.length; i++) {\r\n             if (keccak256(abi.encodePacked(f[i].fileId)) == keccak256(abi.encodePacked(_fileId))) {\r\n              \r\n               delete users[msg.sender][i];\r\n                 \r\n             }\r\n             \r\n         }\r\n  }\r\n    \r\n}",
  "sourcePath": "E:/Development/zap/contracts/Zap.sol",
  "compiler": {
    "name": "solc",
    "version": "0.5.16+commit.9c3226ce.Emscripten.clang"
  },
  "schemaVersion": "3.3.2",
  "updatedAt": "2020-11-18T11:50:38.395Z",
  "networkType": "ethereum",
  "devdoc": {
    "methods": {}
  },
  "userdoc": {
    "methods": {}
  }
}