{
  "contractName": "Zap",
  "abi": [
    {
      "inputs": [],
      "payable": false,
      "stateMutability": "nonpayable",
      "type": "constructor"
    },
    {
      "anonymous": false,
      "inputs": [
        {
          "indexed": false,
          "internalType": "string",
          "name": "fileId",
          "type": "string"
        },
        {
          "indexed": false,
          "internalType": "string",
          "name": "fileHash",
          "type": "string"
        },
        {
          "indexed": false,
          "internalType": "uint256",
          "name": "fileSize",
          "type": "uint256"
        },
        {
          "indexed": false,
          "internalType": "string",
          "name": "fileType",
          "type": "string"
        },
        {
          "indexed": false,
          "internalType": "string",
          "name": "fileName",
          "type": "string"
        },
        {
          "indexed": false,
          "internalType": "uint256",
          "name": "uploadTime",
          "type": "uint256"
        }
      ],
      "name": "FileUploaded",
      "type": "event"
    },
    {
      "constant": true,
      "inputs": [],
      "name": "name",
      "outputs": [
        {
          "internalType": "string",
          "name": "",
          "type": "string"
        }
      ],
      "payable": false,
      "stateMutability": "view",
      "type": "function"
    },
    {
      "constant": true,
      "inputs": [
        {
          "internalType": "address",
          "name": "",
          "type": "address"
        },
        {
          "internalType": "uint256",
          "name": "",
          "type": "uint256"
        }
      ],
      "name": "users",
      "outputs": [
        {
          "internalType": "string",
          "name": "fileId",
          "type": "string"
        },
        {
          "internalType": "string",
          "name": "fileHash",
          "type": "string"
        },
        {
          "internalType": "uint256",
          "name": "fileSize",
          "type": "uint256"
        },
        {
          "internalType": "string",
          "name": "fileType",
          "type": "string"
        },
        {
          "internalType": "string",
          "name": "fileName",
          "type": "string"
        },
        {
          "internalType": "uint256",
          "name": "uploadTime",
          "type": "uint256"
        }
      ],
      "payable": false,
      "stateMutability": "view",
      "type": "function"
    },
    {
      "constant": false,
      "inputs": [
        {
          "internalType": "string",
          "name": "_fileId",
          "type": "string"
        },
        {
          "internalType": "string",
          "name": "_fileHash",
          "type": "string"
        },
        {
          "internalType": "uint256",
          "name": "_fileSize",
          "type": "uint256"
        },
        {
          "internalType": "string",
          "name": "_fileType",
          "type": "string"
        },
        {
          "internalType": "string",
          "name": "_fileName",
          "type": "string"
        }
      ],
      "name": "uploadFile",
      "outputs": [
        {
          "internalType": "string",
          "name": "",
          "type": "string"
        },
        {
          "internalType": "string",
          "name": "",
          "type": "string"
        },
        {
          "internalType": "uint256",
          "name": "",
          "type": "uint256"
        },
        {
          "internalType": "string",
          "name": "",
          "type": "string"
        },
        {
          "internalType": "string",
          "name": "",
          "type": "string"
        },
        {
          "internalType": "uint256",
          "name": "",
          "type": "uint256"
        }
      ],
      "payable": false,
      "stateMutability": "nonpayable",
      "type": "function"
    },
    {
      "constant": true,
      "inputs": [],
      "name": "getCount",
      "outputs": [
        {
          "internalType": "uint256",
          "name": "",
          "type": "uint256"
        }
      ],
      "payable": false,
      "stateMutability": "view",
      "type": "function"
    },
    {
      "constant": true,
      "inputs": [
        {
          "internalType": "uint256",
          "name": "_index",
          "type": "uint256"
        }
      ],
      "name": "getFilesofUser",
      "outputs": [
        {
          "internalType": "string",
          "name": "",
          "type": "string"
        },
        {
          "internalType": "string",
          "name": "",
          "type": "string"
        },
        {
          "internalType": "uint256",
          "name": "",
          "type": "uint256"
        },
        {
          "internalType": "string",
          "name": "",
          "type": "string"
        },
        {
          "internalType": "string",
          "name": "",
          "type": "string"
        },
        {
          "internalType": "uint256",
          "name": "",
          "type": "uint256"
        }
      ],
      "payable": false,
      "stateMutability": "view",
      "type": "function"
    }
  ],
  "bytecode": "0x60806040526040518060400160405280600381526020017f5a61700000000000000000000000000000000000000000000000000000000000815250600090805190602001906200005192919062000066565b503480156200005f57600080fd5b5062000115565b828054600181600116156101000203166002900490600052602060002090601f016020900481019282601f10620000a957805160ff1916838001178555620000da565b82800160010185558215620000da579182015b82811115620000d9578251825591602001919060010190620000bc565b5b509050620000e99190620000ed565b5090565b6200011291905b808211156200010e576000816000905550600101620000f4565b5090565b90565b6118a780620001256000396000f3fe608060405234801561001057600080fd5b50600436106100575760003560e01c806306fdde031461005c57806354a02f9e146100df578063a4b6e24e146102f8578063a87d942c146104f1578063b51efc6f1461050f575b600080fd5b610064610964565b6040518080602001828103825283818151815260200191508051906020019080838360005b838110156100a4578082015181840152602081019050610089565b50505050905090810190601f1680156100d15780820380516001836020036101000a031916815260200191505b509250505060405180910390f35b61012b600480360360408110156100f557600080fd5b81019080803573ffffffffffffffffffffffffffffffffffffffff16906020019092919080359060200190929190505050610a02565b604051808060200180602001878152602001806020018060200186815260200185810385528b818151815260200191508051906020019080838360005b83811015610183578082015181840152602081019050610168565b50505050905090810190601f1680156101b05780820380516001836020036101000a031916815260200191505b5085810384528a818151815260200191508051906020019080838360005b838110156101e95780820151818401526020810190506101ce565b50505050905090810190601f1680156102165780820380516001836020036101000a031916815260200191505b50858103835288818151815260200191508051906020019080838360005b8381101561024f578082015181840152602081019050610234565b50505050905090810190601f16801561027c5780820380516001836020036101000a031916815260200191505b50858103825287818151815260200191508051906020019080838360005b838110156102b557808201518184015260208101905061029a565b50505050905090810190601f1680156102e25780820380516001836020036101000a031916815260200191505b509a505050505050505050505060405180910390f35b6103246004803603602081101561030e57600080fd5b8101908080359060200190929190505050610cb8565b604051808060200180602001878152602001806020018060200186815260200185810385528b818151815260200191508051906020019080838360005b8381101561037c578082015181840152602081019050610361565b50505050905090810190601f1680156103a95780820380516001836020036101000a031916815260200191505b5085810384528a818151815260200191508051906020019080838360005b838110156103e25780820151818401526020810190506103c7565b50505050905090810190601f16801561040f5780820380516001836020036101000a031916815260200191505b50858103835288818151815260200191508051906020019080838360005b8381101561044857808201518184015260208101905061042d565b50505050905090810190601f1680156104755780820380516001836020036101000a031916815260200191505b50858103825287818151815260200191508051906020019080838360005b838110156104ae578082015181840152602081019050610493565b50505050905090810190601f1680156104db5780820380516001836020036101000a031916815260200191505b509a505050505050505050505060405180910390f35b6104f9611018565b6040518082815260200191505060405180910390f35b610797600480360360a081101561052557600080fd5b810190808035906020019064010000000081111561054257600080fd5b82018360208201111561055457600080fd5b8035906020019184600183028401116401000000008311171561057657600080fd5b91908080601f016020809104026020016040519081016040528093929190818152602001838380828437600081840152601f19601f820116905080830192505050505050509192919290803590602001906401000000008111156105d957600080fd5b8201836020820111156105eb57600080fd5b8035906020019184600183028401116401000000008311171561060d57600080fd5b91908080601f016020809104026020016040519081016040528093929190818152602001838380828437600081840152601f19601f820116905080830192505050505050509192919290803590602001909291908035906020019064010000000081111561067a57600080fd5b82018360208201111561068c57600080fd5b803590602001918460018302840111640100000000831117156106ae57600080fd5b91908080601f016020809104026020016040519081016040528093929190818152602001838380828437600081840152601f19601f8201169050808301925050505050505091929192908035906020019064010000000081111561071157600080fd5b82018360208201111561072357600080fd5b8035906020019184600183028401116401000000008311171561074557600080fd5b91908080601f016020809104026020016040519081016040528093929190818152602001838380828437600081840152601f19601f820116905080830192505050505050509192919290505050611062565b604051808060200180602001878152602001806020018060200186815260200185810385528b818151815260200191508051906020019080838360005b838110156107ef5780820151818401526020810190506107d4565b50505050905090810190601f16801561081c5780820380516001836020036101000a031916815260200191505b5085810384528a818151815260200191508051906020019080838360005b8381101561085557808201518184015260208101905061083a565b50505050905090810190601f1680156108825780820380516001836020036101000a031916815260200191505b50858103835288818151815260200191508051906020019080838360005b838110156108bb5780820151818401526020810190506108a0565b50505050905090810190601f1680156108e85780820380516001836020036101000a031916815260200191505b50858103825287818151815260200191508051906020019080838360005b83811015610921578082015181840152602081019050610906565b50505050905090810190601f16801561094e5780820380516001836020036101000a031916815260200191505b509a505050505050505050505060405180910390f35b60008054600181600116156101000203166002900480601f0160208091040260200160405190810160405280929190818152602001828054600181600116156101000203166002900480156109fa5780601f106109cf576101008083540402835291602001916109fa565b820191906000526020600020905b8154815290600101906020018083116109dd57829003601f168201915b505050505081565b60016020528160005260406000208181548110610a1b57fe5b906000526020600020906006020160009150915050806000018054600181600116156101000203166002900480601f016020809104026020016040519081016040528092919081815260200182805460018160011615610100020316600290048015610ac85780601f10610a9d57610100808354040283529160200191610ac8565b820191906000526020600020905b815481529060010190602001808311610aab57829003601f168201915b505050505090806001018054600181600116156101000203166002900480601f016020809104026020016040519081016040528092919081815260200182805460018160011615610100020316600290048015610b665780601f10610b3b57610100808354040283529160200191610b66565b820191906000526020600020905b815481529060010190602001808311610b4957829003601f168201915b505050505090806002015490806003018054600181600116156101000203166002900480601f016020809104026020016040519081016040528092919081815260200182805460018160011615610100020316600290048015610c0a5780601f10610bdf57610100808354040283529160200191610c0a565b820191906000526020600020905b815481529060010190602001808311610bed57829003601f168201915b505050505090806004018054600181600116156101000203166002900480601f016020809104026020016040519081016040528092919081815260200182805460018160011615610100020316600290048015610ca85780601f10610c7d57610100808354040283529160200191610ca8565b820191906000526020600020905b815481529060010190602001808311610c8b57829003601f168201915b5050505050908060050154905086565b6060806000606080600080871015610ccf57600080fd5b610cd7611797565b600160003373ffffffffffffffffffffffffffffffffffffffff1673ffffffffffffffffffffffffffffffffffffffff1681526020019081526020016000208881548110610d2157fe5b90600052602060002090600602016040518060c0016040529081600082018054600181600116156101000203166002900480601f016020809104026020016040519081016040528092919081815260200182805460018160011615610100020316600290048015610dd35780601f10610da857610100808354040283529160200191610dd3565b820191906000526020600020905b815481529060010190602001808311610db657829003601f168201915b50505050508152602001600182018054600181600116156101000203166002900480601f016020809104026020016040519081016040528092919081815260200182805460018160011615610100020316600290048015610e755780601f10610e4a57610100808354040283529160200191610e75565b820191906000526020600020905b815481529060010190602001808311610e5857829003601f168201915b5050505050815260200160028201548152602001600382018054600181600116156101000203166002900480601f016020809104026020016040519081016040528092919081815260200182805460018160011615610100020316600290048015610f215780601f10610ef657610100808354040283529160200191610f21565b820191906000526020600020905b815481529060010190602001808311610f0457829003601f168201915b50505050508152602001600482018054600181600116156101000203166002900480601f016020809104026020016040519081016040528092919081815260200182805460018160011615610100020316600290048015610fc35780601f10610f9857610100808354040283529160200191610fc3565b820191906000526020600020905b815481529060010190602001808311610fa657829003601f168201915b505050505081526020016005820154815250509050806000015181602001518260400151836060015184608001518560a001518595508494508292508191509650965096509650965096505091939550919395565b6000600160003373ffffffffffffffffffffffffffffffffffffffff1673ffffffffffffffffffffffffffffffffffffffff16815260200190815260200160002080549050905090565b60608060006060806000808a511161107957600080fd5b60008b511161108757600080fd5b600088511161109557600080fd5b60008751116110a357600080fd5b600073ffffffffffffffffffffffffffffffffffffffff163373ffffffffffffffffffffffffffffffffffffffff1614156110dd57600080fd5b600089116110ea57600080fd5b600160003373ffffffffffffffffffffffffffffffffffffffff1673ffffffffffffffffffffffffffffffffffffffff1681526020019081526020016000206040518060c001604052808d81526020018c81526020018b81526020018a81526020018981526020014281525090806001815401808255809150509060018203906000526020600020906006020160009091929091909150600082015181600001908051906020019061119d9291906117cd565b5060208201518160010190805190602001906111ba9291906117cd565b506040820151816002015560608201518160030190805190602001906111e19291906117cd565b5060808201518160040190805190602001906111fe9291906117cd565b5060a082015181600501555050507f6c1f9a68defcb9c01c4d23ec8500356148eb1397f05f30b04bf432fdc596bda28b8b8b8b8b42604051808060200180602001878152602001806020018060200186815260200185810385528b818151815260200191508051906020019080838360005b8381101561128b578082015181840152602081019050611270565b50505050905090810190601f1680156112b85780820380516001836020036101000a031916815260200191505b5085810384528a818151815260200191508051906020019080838360005b838110156112f15780820151818401526020810190506112d6565b50505050905090810190601f16801561131e5780820380516001836020036101000a031916815260200191505b50858103835288818151815260200191508051906020019080838360005b8381101561135757808201518184015260208101905061133c565b50505050905090810190601f1680156113845780820380516001836020036101000a031916815260200191505b50858103825287818151815260200191508051906020019080838360005b838110156113bd5780820151818401526020810190506113a2565b50505050905090810190601f1680156113ea5780820380516001836020036101000a031916815260200191505b509a505050505050505050505060405180910390a16000600160003373ffffffffffffffffffffffffffffffffffffffff1673ffffffffffffffffffffffffffffffffffffffff16815260200190815260200160002080549050905061144e611797565b600160003373ffffffffffffffffffffffffffffffffffffffff1673ffffffffffffffffffffffffffffffffffffffff168152602001908152602001600020600183038154811061149b57fe5b90600052602060002090600602016040518060c0016040529081600082018054600181600116156101000203166002900480601f01602080910402602001604051908101604052809291908181526020018280546001816001161561010002031660029004801561154d5780601f106115225761010080835404028352916020019161154d565b820191906000526020600020905b81548152906001019060200180831161153057829003601f168201915b50505050508152602001600182018054600181600116156101000203166002900480601f0160208091040260200160405190810160405280929190818152602001828054600181600116156101000203166002900480156115ef5780601f106115c4576101008083540402835291602001916115ef565b820191906000526020600020905b8154815290600101906020018083116115d257829003601f168201915b5050505050815260200160028201548152602001600382018054600181600116156101000203166002900480601f01602080910402602001604051908101604052809291908181526020018280546001816001161561010002031660029004801561169b5780601f106116705761010080835404028352916020019161169b565b820191906000526020600020905b81548152906001019060200180831161167e57829003601f168201915b50505050508152602001600482018054600181600116156101000203166002900480601f01602080910402602001604051908101604052809291908181526020018280546001816001161561010002031660029004801561173d5780601f106117125761010080835404028352916020019161173d565b820191906000526020600020905b81548152906001019060200180831161172057829003601f168201915b505050505081526020016005820154815250509050806000015181602001518260400151836060015184608001518560a0015185955084945082925081915097509750975097509750975050509550955095509550955095565b6040518060c001604052806060815260200160608152602001600081526020016060815260200160608152602001600081525090565b828054600181600116156101000203166002900490600052602060002090601f016020900481019282601f1061180e57805160ff191683800117855561183c565b8280016001018555821561183c579182015b8281111561183b578251825591602001919060010190611820565b5b509050611849919061184d565b5090565b61186f91905b8082111561186b576000816000905550600101611853565b5090565b9056fea265627a7a72315820fe64c146a13ed52e694e7d7e8c18590f8c54021c812d5f1a02c2b1ca2d2510a564736f6c63430005100032",
  "source": "pragma solidity >=0.4.21 <0.7.0;\r\n\r\ncontract Zap{\r\n    \r\n    string public name = 'Zap';\r\n    \r\n    \r\n    struct File {\r\n        string fileId;\r\n        string fileHash;\r\n        uint fileSize;\r\n        string fileType;\r\n        string fileName;\r\n        uint uploadTime;\r\n    }\r\n    \r\n\r\n    \r\n    mapping(address => File[]) public users;\r\n    \r\n    \r\n     event FileUploaded(\r\n        string fileId,\r\n        string fileHash,\r\n        uint fileSize,\r\n        string fileType,\r\n        string fileName,\r\n        uint uploadTime\r\n  );\r\n  \r\n  constructor() public {\r\n  }\r\n    \r\n  function uploadFile(string memory _fileId,string memory _fileHash, uint _fileSize, string memory _fileType, string memory _fileName) public returns(string memory,string memory,uint, string memory,string memory,uint) {\r\n\r\n    require(bytes(_fileHash).length > 0);\r\n    require(bytes(_fileId).length > 0);\r\n\r\n    require(bytes(_fileType).length > 0);\r\n\r\n    require(bytes(_fileName).length > 0);\r\n\r\n    require(msg.sender!=address(0));\r\n\r\n    require(_fileSize>0);\r\n    \r\n    users[msg.sender].push(File(_fileId,_fileHash, _fileSize, _fileType, _fileName, now));\r\n\r\n\r\n    emit FileUploaded(_fileId,_fileHash, _fileSize, _fileType, _fileName,now);\r\n\r\n\r\n    uint length = users[msg.sender].length;\r\n\r\n    File memory file = users[msg.sender][length-1];\r\n      \r\n    return (file.fileId,file.fileHash,file.fileSize,file.fileType,file.fileName,file.uploadTime);\r\n  }\r\n  \r\n  function getCount() public view returns(uint){\r\n      \r\n    return users[msg.sender].length;\r\n  }\r\n  \r\n  function getFilesofUser(uint _index) public view returns(string memory,string memory,uint, string memory,string memory,uint) {\r\n      \r\n      \r\n      require(_index>=0);\r\n      \r\n      File memory file = users[msg.sender][_index];\r\n      \r\n      return (file.fileId,file.fileHash,file.fileSize,file.fileType,file.fileName,file.uploadTime);\r\n    \r\n  }\r\n    \r\n}",
  "sourcePath": "E:/Development/zap/contracts/Zap.sol",
  "compiler": {
    "name": "solc",
    "version": "0.5.16+commit.9c3226ce.Emscripten.clang"
  },
  "schemaVersion": "3.3.2",
  "updatedAt": "2020-11-17T06:34:00.500Z",
  "networkType": "ethereum",
  "devdoc": {
    "methods": {}
  },
  "userdoc": {
    "methods": {}
  }
}