{
  "contractName": "Zap",
  "abi": [
    {
      "inputs": [],
      "payable": false,
      "stateMutability": "nonpayable",
      "type": "constructor"
    },
    {
      "anonymous": false,
      "inputs": [
        {
          "indexed": false,
          "internalType": "string",
          "name": "fileId",
          "type": "string"
        },
        {
          "indexed": false,
          "internalType": "string",
          "name": "fileHash",
          "type": "string"
        },
        {
          "indexed": false,
          "internalType": "uint256",
          "name": "fileSize",
          "type": "uint256"
        },
        {
          "indexed": false,
          "internalType": "string",
          "name": "fileType",
          "type": "string"
        },
        {
          "indexed": false,
          "internalType": "string",
          "name": "fileName",
          "type": "string"
        },
        {
          "indexed": false,
          "internalType": "uint256",
          "name": "uploadTime",
          "type": "uint256"
        }
      ],
      "name": "FileShareUploaded",
      "type": "event"
    },
    {
      "anonymous": false,
      "inputs": [
        {
          "indexed": false,
          "internalType": "string",
          "name": "fileId",
          "type": "string"
        },
        {
          "indexed": false,
          "internalType": "string",
          "name": "fileHash",
          "type": "string"
        },
        {
          "indexed": false,
          "internalType": "uint256",
          "name": "fileSize",
          "type": "uint256"
        },
        {
          "indexed": false,
          "internalType": "string",
          "name": "fileType",
          "type": "string"
        },
        {
          "indexed": false,
          "internalType": "string",
          "name": "fileName",
          "type": "string"
        },
        {
          "indexed": false,
          "internalType": "uint256",
          "name": "uploadTime",
          "type": "uint256"
        }
      ],
      "name": "FileUploaded",
      "type": "event"
    },
    {
      "constant": true,
      "inputs": [],
      "name": "name",
      "outputs": [
        {
          "internalType": "string",
          "name": "",
          "type": "string"
        }
      ],
      "payable": false,
      "stateMutability": "view",
      "type": "function"
    },
    {
      "constant": true,
      "inputs": [
        {
          "internalType": "address",
          "name": "",
          "type": "address"
        },
        {
          "internalType": "uint256",
          "name": "",
          "type": "uint256"
        }
      ],
      "name": "shares",
      "outputs": [
        {
          "internalType": "string",
          "name": "fileId",
          "type": "string"
        },
        {
          "internalType": "string",
          "name": "fileHash",
          "type": "string"
        },
        {
          "internalType": "uint256",
          "name": "fileSize",
          "type": "uint256"
        },
        {
          "internalType": "string",
          "name": "fileType",
          "type": "string"
        },
        {
          "internalType": "string",
          "name": "fileName",
          "type": "string"
        },
        {
          "internalType": "uint256",
          "name": "uploadTime",
          "type": "uint256"
        }
      ],
      "payable": false,
      "stateMutability": "view",
      "type": "function"
    },
    {
      "constant": true,
      "inputs": [
        {
          "internalType": "address",
          "name": "",
          "type": "address"
        },
        {
          "internalType": "uint256",
          "name": "",
          "type": "uint256"
        }
      ],
      "name": "users",
      "outputs": [
        {
          "internalType": "string",
          "name": "fileId",
          "type": "string"
        },
        {
          "internalType": "string",
          "name": "fileHash",
          "type": "string"
        },
        {
          "internalType": "uint256",
          "name": "fileSize",
          "type": "uint256"
        },
        {
          "internalType": "string",
          "name": "fileType",
          "type": "string"
        },
        {
          "internalType": "string",
          "name": "fileName",
          "type": "string"
        },
        {
          "internalType": "uint256",
          "name": "uploadTime",
          "type": "uint256"
        }
      ],
      "payable": false,
      "stateMutability": "view",
      "type": "function"
    },
    {
      "constant": false,
      "inputs": [
        {
          "internalType": "string",
          "name": "_fileId",
          "type": "string"
        },
        {
          "internalType": "string",
          "name": "_fileHash",
          "type": "string"
        },
        {
          "internalType": "uint256",
          "name": "_fileSize",
          "type": "uint256"
        },
        {
          "internalType": "string",
          "name": "_fileType",
          "type": "string"
        },
        {
          "internalType": "string",
          "name": "_fileName",
          "type": "string"
        }
      ],
      "name": "uploadFile",
      "outputs": [
        {
          "internalType": "string",
          "name": "",
          "type": "string"
        },
        {
          "internalType": "string",
          "name": "",
          "type": "string"
        },
        {
          "internalType": "uint256",
          "name": "",
          "type": "uint256"
        },
        {
          "internalType": "string",
          "name": "",
          "type": "string"
        },
        {
          "internalType": "string",
          "name": "",
          "type": "string"
        },
        {
          "internalType": "uint256",
          "name": "",
          "type": "uint256"
        }
      ],
      "payable": false,
      "stateMutability": "nonpayable",
      "type": "function"
    },
    {
      "constant": true,
      "inputs": [],
      "name": "getCount",
      "outputs": [
        {
          "internalType": "uint256",
          "name": "",
          "type": "uint256"
        }
      ],
      "payable": false,
      "stateMutability": "view",
      "type": "function"
    },
    {
      "constant": false,
      "inputs": [
        {
          "internalType": "string",
          "name": "_fileId",
          "type": "string"
        }
      ],
      "name": "removeHash",
      "outputs": [],
      "payable": false,
      "stateMutability": "nonpayable",
      "type": "function"
    },
    {
      "constant": false,
      "inputs": [
        {
          "internalType": "address",
          "name": "_to",
          "type": "address"
        },
        {
          "internalType": "string",
          "name": "_fileId",
          "type": "string"
        },
        {
          "internalType": "string",
          "name": "_fileHash",
          "type": "string"
        },
        {
          "internalType": "uint256",
          "name": "_fileSize",
          "type": "uint256"
        },
        {
          "internalType": "string",
          "name": "_fileType",
          "type": "string"
        },
        {
          "internalType": "string",
          "name": "_fileName",
          "type": "string"
        }
      ],
      "name": "uploadShareFile",
      "outputs": [
        {
          "internalType": "string",
          "name": "",
          "type": "string"
        },
        {
          "internalType": "string",
          "name": "",
          "type": "string"
        },
        {
          "internalType": "uint256",
          "name": "",
          "type": "uint256"
        },
        {
          "internalType": "string",
          "name": "",
          "type": "string"
        },
        {
          "internalType": "string",
          "name": "",
          "type": "string"
        },
        {
          "internalType": "uint256",
          "name": "",
          "type": "uint256"
        }
      ],
      "payable": false,
      "stateMutability": "nonpayable",
      "type": "function"
    },
    {
      "constant": true,
      "inputs": [
        {
          "internalType": "address",
          "name": "_address",
          "type": "address"
        }
      ],
      "name": "getShareCount",
      "outputs": [
        {
          "internalType": "uint256",
          "name": "",
          "type": "uint256"
        }
      ],
      "payable": false,
      "stateMutability": "view",
      "type": "function"
    },
    {
      "constant": true,
      "inputs": [
        {
          "internalType": "uint256",
          "name": "_index",
          "type": "uint256"
        }
      ],
      "name": "getFilesofUser",
      "outputs": [
        {
          "internalType": "string",
          "name": "",
          "type": "string"
        },
        {
          "internalType": "string",
          "name": "",
          "type": "string"
        },
        {
          "internalType": "uint256",
          "name": "",
          "type": "uint256"
        },
        {
          "internalType": "string",
          "name": "",
          "type": "string"
        },
        {
          "internalType": "string",
          "name": "",
          "type": "string"
        },
        {
          "internalType": "uint256",
          "name": "",
          "type": "uint256"
        }
      ],
      "payable": false,
      "stateMutability": "view",
      "type": "function"
    },
    {
      "constant": true,
      "inputs": [
        {
          "internalType": "uint256",
          "name": "_index",
          "type": "uint256"
        },
        {
          "internalType": "address",
          "name": "_address",
          "type": "address"
        }
      ],
      "name": "getFilesofUser",
      "outputs": [
        {
          "internalType": "string",
          "name": "",
          "type": "string"
        },
        {
          "internalType": "string",
          "name": "",
          "type": "string"
        },
        {
          "internalType": "uint256",
          "name": "",
          "type": "uint256"
        },
        {
          "internalType": "string",
          "name": "",
          "type": "string"
        },
        {
          "internalType": "string",
          "name": "",
          "type": "string"
        },
        {
          "internalType": "uint256",
          "name": "",
          "type": "uint256"
        }
      ],
      "payable": false,
      "stateMutability": "view",
      "type": "function"
    },
    {
      "constant": false,
      "inputs": [
        {
          "internalType": "string",
          "name": "_fileId",
          "type": "string"
        },
        {
          "internalType": "address",
          "name": "_address",
          "type": "address"
        }
      ],
      "name": "removeShareHash",
      "outputs": [],
      "payable": false,
      "stateMutability": "nonpayable",
      "type": "function"
    }
  ],
  "bytecode": "0x60806040526040518060400160405280600381526020017f5a61700000000000000000000000000000000000000000000000000000000000815250600090805190602001906200005192919062000066565b503480156200005f57600080fd5b5062000115565b828054600181600116156101000203166002900490600052602060002090601f016020900481019282601f10620000a957805160ff1916838001178555620000da565b82800160010185558215620000da579182015b82811115620000d9578251825591602001919060010190620000bc565b5b509050620000e99190620000ed565b5090565b6200011291905b808211156200010e576000816000905550600101620000f4565b5090565b90565b6135b380620001256000396000f3fe608060405234801561001057600080fd5b50600436106100a95760003560e01c8063a4b6e24e11610071578063a4b6e24e14610696578063a87d942c1461088f578063aefbbfca146108ad578063b51efc6f14610d22578063e82240f814611177578063fa59d19914611390576100a9565b806306fdde03146100ae578063259ddefc1461013157806326c6a2631461034a57806354a02f9e14610425578063729d84601461063e575b600080fd5b6100b661144b565b6040518080602001828103825283818151815260200191508051906020019080838360005b838110156100f65780820151818401526020810190506100db565b50505050905090810190601f1680156101235780820380516001836020036101000a031916815260200191505b509250505060405180910390f35b61017d6004803603604081101561014757600080fd5b81019080803573ffffffffffffffffffffffffffffffffffffffff169060200190929190803590602001909291905050506114e9565b604051808060200180602001878152602001806020018060200186815260200185810385528b818151815260200191508051906020019080838360005b838110156101d55780820151818401526020810190506101ba565b50505050905090810190601f1680156102025780820380516001836020036101000a031916815260200191505b5085810384528a818151815260200191508051906020019080838360005b8381101561023b578082015181840152602081019050610220565b50505050905090810190601f1680156102685780820380516001836020036101000a031916815260200191505b50858103835288818151815260200191508051906020019080838360005b838110156102a1578082015181840152602081019050610286565b50505050905090810190601f1680156102ce5780820380516001836020036101000a031916815260200191505b50858103825287818151815260200191508051906020019080838360005b838110156103075780820151818401526020810190506102ec565b50505050905090810190601f1680156103345780820380516001836020036101000a031916815260200191505b509a505050505050505050505060405180910390f35b6104236004803603604081101561036057600080fd5b810190808035906020019064010000000081111561037d57600080fd5b82018360208201111561038f57600080fd5b803590602001918460018302840111640100000000831117156103b157600080fd5b91908080601f016020809104026020016040519081016040528093929190818152602001838380828437600081840152601f19601f820116905080830192505050505050509192919290803573ffffffffffffffffffffffffffffffffffffffff16906020019092919050505061179f565b005b6104716004803603604081101561043b57600080fd5b81019080803573ffffffffffffffffffffffffffffffffffffffff169060200190929190803590602001909291905050506119c1565b604051808060200180602001878152602001806020018060200186815260200185810385528b818151815260200191508051906020019080838360005b838110156104c95780820151818401526020810190506104ae565b50505050905090810190601f1680156104f65780820380516001836020036101000a031916815260200191505b5085810384528a818151815260200191508051906020019080838360005b8381101561052f578082015181840152602081019050610514565b50505050905090810190601f16801561055c5780820380516001836020036101000a031916815260200191505b50858103835288818151815260200191508051906020019080838360005b8381101561059557808201518184015260208101905061057a565b50505050905090810190601f1680156105c25780820380516001836020036101000a031916815260200191505b50858103825287818151815260200191508051906020019080838360005b838110156105fb5780820151818401526020810190506105e0565b50505050905090810190601f1680156106285780820380516001836020036101000a031916815260200191505b509a505050505050505050505060405180910390f35b6106806004803603602081101561065457600080fd5b81019080803573ffffffffffffffffffffffffffffffffffffffff169060200190929190505050611c77565b6040518082815260200191505060405180910390f35b6106c2600480360360208110156106ac57600080fd5b8101908080359060200190929190505050611cc3565b604051808060200180602001878152602001806020018060200186815260200185810385528b818151815260200191508051906020019080838360005b8381101561071a5780820151818401526020810190506106ff565b50505050905090810190601f1680156107475780820380516001836020036101000a031916815260200191505b5085810384528a818151815260200191508051906020019080838360005b83811015610780578082015181840152602081019050610765565b50505050905090810190601f1680156107ad5780820380516001836020036101000a031916815260200191505b50858103835288818151815260200191508051906020019080838360005b838110156107e65780820151818401526020810190506107cb565b50505050905090810190601f1680156108135780820380516001836020036101000a031916815260200191505b50858103825287818151815260200191508051906020019080838360005b8381101561084c578082015181840152602081019050610831565b50505050905090810190601f1680156108795780820380516001836020036101000a031916815260200191505b509a505050505050505050505060405180910390f35b610897612023565b6040518082815260200191505060405180910390f35b610b55600480360360c08110156108c357600080fd5b81019080803573ffffffffffffffffffffffffffffffffffffffff1690602001909291908035906020019064010000000081111561090057600080fd5b82018360208201111561091257600080fd5b8035906020019184600183028401116401000000008311171561093457600080fd5b91908080601f016020809104026020016040519081016040528093929190818152602001838380828437600081840152601f19601f8201169050808301925050505050505091929192908035906020019064010000000081111561099757600080fd5b8201836020820111156109a957600080fd5b803590602001918460018302840111640100000000831117156109cb57600080fd5b91908080601f016020809104026020016040519081016040528093929190818152602001838380828437600081840152601f19601f8201169050808301925050505050505091929192908035906020019092919080359060200190640100000000811115610a3857600080fd5b820183602082011115610a4a57600080fd5b80359060200191846001830284011164010000000083111715610a6c57600080fd5b91908080601f016020809104026020016040519081016040528093929190818152602001838380828437600081840152601f19601f82011690508083019250505050505050919291929080359060200190640100000000811115610acf57600080fd5b820183602082011115610ae157600080fd5b80359060200191846001830284011164010000000083111715610b0357600080fd5b91908080601f016020809104026020016040519081016040528093929190818152602001838380828437600081840152601f19601f82011690508083019250505050505050919291929050505061206d565b604051808060200180602001878152602001806020018060200186815260200185810385528b818151815260200191508051906020019080838360005b83811015610bad578082015181840152602081019050610b92565b50505050905090810190601f168015610bda5780820380516001836020036101000a031916815260200191505b5085810384528a818151815260200191508051906020019080838360005b83811015610c13578082015181840152602081019050610bf8565b50505050905090810190601f168015610c405780820380516001836020036101000a031916815260200191505b50858103835288818151815260200191508051906020019080838360005b83811015610c79578082015181840152602081019050610c5e565b50505050905090810190601f168015610ca65780820380516001836020036101000a031916815260200191505b50858103825287818151815260200191508051906020019080838360005b83811015610cdf578082015181840152602081019050610cc4565b50505050905090810190601f168015610d0c5780820380516001836020036101000a031916815260200191505b509a505050505050505050505060405180910390f35b610faa600480360360a0811015610d3857600080fd5b8101908080359060200190640100000000811115610d5557600080fd5b820183602082011115610d6757600080fd5b80359060200191846001830284011164010000000083111715610d8957600080fd5b91908080601f016020809104026020016040519081016040528093929190818152602001838380828437600081840152601f19601f82011690508083019250505050505050919291929080359060200190640100000000811115610dec57600080fd5b820183602082011115610dfe57600080fd5b80359060200191846001830284011164010000000083111715610e2057600080fd5b91908080601f016020809104026020016040519081016040528093929190818152602001838380828437600081840152601f19601f8201169050808301925050505050505091929192908035906020019092919080359060200190640100000000811115610e8d57600080fd5b820183602082011115610e9f57600080fd5b80359060200191846001830284011164010000000083111715610ec157600080fd5b91908080601f016020809104026020016040519081016040528093929190818152602001838380828437600081840152601f19601f82011690508083019250505050505050919291929080359060200190640100000000811115610f2457600080fd5b820183602082011115610f3657600080fd5b80359060200191846001830284011164010000000083111715610f5857600080fd5b91908080601f016020809104026020016040519081016040528093929190818152602001838380828437600081840152601f19601f8201169050808301925050505050505091929192905050506127a4565b604051808060200180602001878152602001806020018060200186815260200185810385528b818151815260200191508051906020019080838360005b83811015611002578082015181840152602081019050610fe7565b50505050905090810190601f16801561102f5780820380516001836020036101000a031916815260200191505b5085810384528a818151815260200191508051906020019080838360005b8381101561106857808201518184015260208101905061104d565b50505050905090810190601f1680156110955780820380516001836020036101000a031916815260200191505b50858103835288818151815260200191508051906020019080838360005b838110156110ce5780820151818401526020810190506110b3565b50505050905090810190601f1680156110fb5780820380516001836020036101000a031916815260200191505b50858103825287818151815260200191508051906020019080838360005b83811015611134578082015181840152602081019050611119565b50505050905090810190601f1680156111615780820380516001836020036101000a031916815260200191505b509a505050505050505050505060405180910390f35b6111c36004803603604081101561118d57600080fd5b8101908080359060200190929190803573ffffffffffffffffffffffffffffffffffffffff169060200190929190505050612ed9565b604051808060200180602001878152602001806020018060200186815260200185810385528b818151815260200191508051906020019080838360005b8381101561121b578082015181840152602081019050611200565b50505050905090810190601f1680156112485780820380516001836020036101000a031916815260200191505b5085810384528a818151815260200191508051906020019080838360005b83811015611281578082015181840152602081019050611266565b50505050905090810190601f1680156112ae5780820380516001836020036101000a031916815260200191505b50858103835288818151815260200191508051906020019080838360005b838110156112e75780820151818401526020810190506112cc565b50505050905090810190601f1680156113145780820380516001836020036101000a031916815260200191505b50858103825287818151815260200191508051906020019080838360005b8381101561134d578082015181840152602081019050611332565b50505050905090810190601f16801561137a5780820380516001836020036101000a031916815260200191505b509a505050505050505050505060405180910390f35b611449600480360360208110156113a657600080fd5b81019080803590602001906401000000008111156113c357600080fd5b8201836020820111156113d557600080fd5b803590602001918460018302840111640100000000831117156113f757600080fd5b91908080601f016020809104026020016040519081016040528093929190818152602001838380828437600081840152601f19601f82011690508083019250505050505050919291929050505061323a565b005b60008054600181600116156101000203166002900480601f0160208091040260200160405190810160405280929190818152602001828054600181600116156101000203166002900480156114e15780601f106114b6576101008083540402835291602001916114e1565b820191906000526020600020905b8154815290600101906020018083116114c457829003601f168201915b505050505081565b6002602052816000526040600020818154811061150257fe5b906000526020600020906006020160009150915050806000018054600181600116156101000203166002900480601f0160208091040260200160405190810160405280929190818152602001828054600181600116156101000203166002900480156115af5780601f10611584576101008083540402835291602001916115af565b820191906000526020600020905b81548152906001019060200180831161159257829003601f168201915b505050505090806001018054600181600116156101000203166002900480601f01602080910402602001604051908101604052809291908181526020018280546001816001161561010002031660029004801561164d5780601f106116225761010080835404028352916020019161164d565b820191906000526020600020905b81548152906001019060200180831161163057829003601f168201915b505050505090806002015490806003018054600181600116156101000203166002900480601f0160208091040260200160405190810160405280929190818152602001828054600181600116156101000203166002900480156116f15780601f106116c6576101008083540402835291602001916116f1565b820191906000526020600020905b8154815290600101906020018083116116d457829003601f168201915b505050505090806004018054600181600116156101000203166002900480601f01602080910402602001604051908101604052809291908181526020018280546001816001161561010002031660029004801561178f5780601f106117645761010080835404028352916020019161178f565b820191906000526020600020905b81548152906001019060200180831161177257829003601f168201915b5050505050908060050154905086565b6000600160008373ffffffffffffffffffffffffffffffffffffffff1673ffffffffffffffffffffffffffffffffffffffff168152602001908152602001600020905060008090505b81805490508110156119bb57836040516020018082805190602001908083835b6020831061182b5780518252602082019150602081019050602083039250611808565b6001836020036101000a0380198251168184511680821785525050505050509050019150506040516020818303038152906040528051906020012082828154811061187257fe5b906000526020600020906006020160000160405160200180828054600181600116156101000203166002900480156118e15780601f106118bf5761010080835404028352918201916118e1565b820191906000526020600020905b8154815290600101906020018083116118cd575b50509150506040516020818303038152906040528051906020012014156119ae57600160008473ffffffffffffffffffffffffffffffffffffffff1673ffffffffffffffffffffffffffffffffffffffff168152602001908152602001600020818154811061194c57fe5b90600052602060002090600602016000808201600061196b919061345b565b60018201600061197b919061345b565b6002820160009055600382016000611993919061345b565b6004820160006119a3919061345b565b600582016000905550505b80806001019150506117e8565b50505050565b600160205281600052604060002081815481106119da57fe5b906000526020600020906006020160009150915050806000018054600181600116156101000203166002900480601f016020809104026020016040519081016040528092919081815260200182805460018160011615610100020316600290048015611a875780601f10611a5c57610100808354040283529160200191611a87565b820191906000526020600020905b815481529060010190602001808311611a6a57829003601f168201915b505050505090806001018054600181600116156101000203166002900480601f016020809104026020016040519081016040528092919081815260200182805460018160011615610100020316600290048015611b255780601f10611afa57610100808354040283529160200191611b25565b820191906000526020600020905b815481529060010190602001808311611b0857829003601f168201915b505050505090806002015490806003018054600181600116156101000203166002900480601f016020809104026020016040519081016040528092919081815260200182805460018160011615610100020316600290048015611bc95780601f10611b9e57610100808354040283529160200191611bc9565b820191906000526020600020905b815481529060010190602001808311611bac57829003601f168201915b505050505090806004018054600181600116156101000203166002900480601f016020809104026020016040519081016040528092919081815260200182805460018160011615610100020316600290048015611c675780601f10611c3c57610100808354040283529160200191611c67565b820191906000526020600020905b815481529060010190602001808311611c4a57829003601f168201915b5050505050908060050154905086565b6000600160008373ffffffffffffffffffffffffffffffffffffffff1673ffffffffffffffffffffffffffffffffffffffff168152602001908152602001600020805490509050919050565b6060806000606080600080871015611cda57600080fd5b611ce26134a3565b600160003373ffffffffffffffffffffffffffffffffffffffff1673ffffffffffffffffffffffffffffffffffffffff1681526020019081526020016000208881548110611d2c57fe5b90600052602060002090600602016040518060c0016040529081600082018054600181600116156101000203166002900480601f016020809104026020016040519081016040528092919081815260200182805460018160011615610100020316600290048015611dde5780601f10611db357610100808354040283529160200191611dde565b820191906000526020600020905b815481529060010190602001808311611dc157829003601f168201915b50505050508152602001600182018054600181600116156101000203166002900480601f016020809104026020016040519081016040528092919081815260200182805460018160011615610100020316600290048015611e805780601f10611e5557610100808354040283529160200191611e80565b820191906000526020600020905b815481529060010190602001808311611e6357829003601f168201915b5050505050815260200160028201548152602001600382018054600181600116156101000203166002900480601f016020809104026020016040519081016040528092919081815260200182805460018160011615610100020316600290048015611f2c5780601f10611f0157610100808354040283529160200191611f2c565b820191906000526020600020905b815481529060010190602001808311611f0f57829003601f168201915b50505050508152602001600482018054600181600116156101000203166002900480601f016020809104026020016040519081016040528092919081815260200182805460018160011615610100020316600290048015611fce5780601f10611fa357610100808354040283529160200191611fce565b820191906000526020600020905b815481529060010190602001808311611fb157829003601f168201915b505050505081526020016005820154815250509050806000015181602001518260400151836060015184608001518560a001518595508494508292508191509650965096509650965096505091939550919395565b6000600160003373ffffffffffffffffffffffffffffffffffffffff1673ffffffffffffffffffffffffffffffffffffffff16815260200190815260200160002080549050905090565b60608060006060806000808a511161208457600080fd5b60008b511161209257600080fd5b60008851116120a057600080fd5b60008751116120ae57600080fd5b600073ffffffffffffffffffffffffffffffffffffffff163373ffffffffffffffffffffffffffffffffffffffff1614156120e857600080fd5b600089116120f557600080fd5b600160008d73ffffffffffffffffffffffffffffffffffffffff1673ffffffffffffffffffffffffffffffffffffffff1681526020019081526020016000206040518060c001604052808d81526020018c81526020018b81526020018a8152602001898152602001428152509080600181540180825580915050906001820390600052602060002090600602016000909192909190915060008201518160000190805190602001906121a89291906134d9565b5060208201518160010190805190602001906121c59291906134d9565b506040820151816002015560608201518160030190805190602001906121ec9291906134d9565b5060808201518160040190805190602001906122099291906134d9565b5060a082015181600501555050507fab1ca4b4cb31dc367f42d2745e7b10bdb6a3cd4adec76e94e4d15fc4974900568b8b8b8b8b42604051808060200180602001878152602001806020018060200186815260200185810385528b818151815260200191508051906020019080838360005b8381101561229657808201518184015260208101905061227b565b50505050905090810190601f1680156122c35780820380516001836020036101000a031916815260200191505b5085810384528a818151815260200191508051906020019080838360005b838110156122fc5780820151818401526020810190506122e1565b50505050905090810190601f1680156123295780820380516001836020036101000a031916815260200191505b50858103835288818151815260200191508051906020019080838360005b83811015612362578082015181840152602081019050612347565b50505050905090810190601f16801561238f5780820380516001836020036101000a031916815260200191505b50858103825287818151815260200191508051906020019080838360005b838110156123c85780820151818401526020810190506123ad565b50505050905090810190601f1680156123f55780820380516001836020036101000a031916815260200191505b509a505050505050505050505060405180910390a16000600160008e73ffffffffffffffffffffffffffffffffffffffff1673ffffffffffffffffffffffffffffffffffffffff1681526020019081526020016000208054905090506124596134a3565b600160008f73ffffffffffffffffffffffffffffffffffffffff1673ffffffffffffffffffffffffffffffffffffffff16815260200190815260200160002060018303815481106124a657fe5b90600052602060002090600602016040518060c0016040529081600082018054600181600116156101000203166002900480601f0160208091040260200160405190810160405280929190818152602001828054600181600116156101000203166002900480156125585780601f1061252d57610100808354040283529160200191612558565b820191906000526020600020905b81548152906001019060200180831161253b57829003601f168201915b50505050508152602001600182018054600181600116156101000203166002900480601f0160208091040260200160405190810160405280929190818152602001828054600181600116156101000203166002900480156125fa5780601f106125cf576101008083540402835291602001916125fa565b820191906000526020600020905b8154815290600101906020018083116125dd57829003601f168201915b5050505050815260200160028201548152602001600382018054600181600116156101000203166002900480601f0160208091040260200160405190810160405280929190818152602001828054600181600116156101000203166002900480156126a65780601f1061267b576101008083540402835291602001916126a6565b820191906000526020600020905b81548152906001019060200180831161268957829003601f168201915b50505050508152602001600482018054600181600116156101000203166002900480601f0160208091040260200160405190810160405280929190818152602001828054600181600116156101000203166002900480156127485780601f1061271d57610100808354040283529160200191612748565b820191906000526020600020905b81548152906001019060200180831161272b57829003601f168201915b505050505081526020016005820154815250509050806000015181602001518260400151836060015184608001518560a00151859550849450829250819150975097509750975097509750505096509650965096509650969050565b60608060006060806000808a51116127bb57600080fd5b60008b51116127c957600080fd5b60008851116127d757600080fd5b60008751116127e557600080fd5b600073ffffffffffffffffffffffffffffffffffffffff163373ffffffffffffffffffffffffffffffffffffffff16141561281f57600080fd5b6000891161282c57600080fd5b600160003373ffffffffffffffffffffffffffffffffffffffff1673ffffffffffffffffffffffffffffffffffffffff1681526020019081526020016000206040518060c001604052808d81526020018c81526020018b81526020018a8152602001898152602001428152509080600181540180825580915050906001820390600052602060002090600602016000909192909190915060008201518160000190805190602001906128df9291906134d9565b5060208201518160010190805190602001906128fc9291906134d9565b506040820151816002015560608201518160030190805190602001906129239291906134d9565b5060808201518160040190805190602001906129409291906134d9565b5060a082015181600501555050507f6c1f9a68defcb9c01c4d23ec8500356148eb1397f05f30b04bf432fdc596bda28b8b8b8b8b42604051808060200180602001878152602001806020018060200186815260200185810385528b818151815260200191508051906020019080838360005b838110156129cd5780820151818401526020810190506129b2565b50505050905090810190601f1680156129fa5780820380516001836020036101000a031916815260200191505b5085810384528a818151815260200191508051906020019080838360005b83811015612a33578082015181840152602081019050612a18565b50505050905090810190601f168015612a605780820380516001836020036101000a031916815260200191505b50858103835288818151815260200191508051906020019080838360005b83811015612a99578082015181840152602081019050612a7e565b50505050905090810190601f168015612ac65780820380516001836020036101000a031916815260200191505b50858103825287818151815260200191508051906020019080838360005b83811015612aff578082015181840152602081019050612ae4565b50505050905090810190601f168015612b2c5780820380516001836020036101000a031916815260200191505b509a505050505050505050505060405180910390a16000600160003373ffffffffffffffffffffffffffffffffffffffff1673ffffffffffffffffffffffffffffffffffffffff168152602001908152602001600020805490509050612b906134a3565b600160003373ffffffffffffffffffffffffffffffffffffffff1673ffffffffffffffffffffffffffffffffffffffff1681526020019081526020016000206001830381548110612bdd57fe5b90600052602060002090600602016040518060c0016040529081600082018054600181600116156101000203166002900480601f016020809104026020016040519081016040528092919081815260200182805460018160011615610100020316600290048015612c8f5780601f10612c6457610100808354040283529160200191612c8f565b820191906000526020600020905b815481529060010190602001808311612c7257829003601f168201915b50505050508152602001600182018054600181600116156101000203166002900480601f016020809104026020016040519081016040528092919081815260200182805460018160011615610100020316600290048015612d315780601f10612d0657610100808354040283529160200191612d31565b820191906000526020600020905b815481529060010190602001808311612d1457829003601f168201915b5050505050815260200160028201548152602001600382018054600181600116156101000203166002900480601f016020809104026020016040519081016040528092919081815260200182805460018160011615610100020316600290048015612ddd5780601f10612db257610100808354040283529160200191612ddd565b820191906000526020600020905b815481529060010190602001808311612dc057829003601f168201915b50505050508152602001600482018054600181600116156101000203166002900480601f016020809104026020016040519081016040528092919081815260200182805460018160011615610100020316600290048015612e7f5780601f10612e5457610100808354040283529160200191612e7f565b820191906000526020600020905b815481529060010190602001808311612e6257829003601f168201915b505050505081526020016005820154815250509050806000015181602001518260400151836060015184608001518560a0015185955084945082925081915097509750975097509750975050509550955095509550955095565b6060806000606080600080881015612ef057600080fd5b612ef86134a3565b600160008973ffffffffffffffffffffffffffffffffffffffff1673ffffffffffffffffffffffffffffffffffffffff1681526020019081526020016000208981548110612f4257fe5b90600052602060002090600602016040518060c0016040529081600082018054600181600116156101000203166002900480601f016020809104026020016040519081016040528092919081815260200182805460018160011615610100020316600290048015612ff45780601f10612fc957610100808354040283529160200191612ff4565b820191906000526020600020905b815481529060010190602001808311612fd757829003601f168201915b50505050508152602001600182018054600181600116156101000203166002900480601f0160208091040260200160405190810160405280929190818152602001828054600181600116156101000203166002900480156130965780601f1061306b57610100808354040283529160200191613096565b820191906000526020600020905b81548152906001019060200180831161307957829003601f168201915b5050505050815260200160028201548152602001600382018054600181600116156101000203166002900480601f0160208091040260200160405190810160405280929190818152602001828054600181600116156101000203166002900480156131425780601f1061311757610100808354040283529160200191613142565b820191906000526020600020905b81548152906001019060200180831161312557829003601f168201915b50505050508152602001600482018054600181600116156101000203166002900480601f0160208091040260200160405190810160405280929190818152602001828054600181600116156101000203166002900480156131e45780601f106131b9576101008083540402835291602001916131e4565b820191906000526020600020905b8154815290600101906020018083116131c757829003601f168201915b505050505081526020016005820154815250509050806000015181602001518260400151836060015184608001518560a00151859550849450829250819150965096509650965096509650509295509295509295565b6000600160003373ffffffffffffffffffffffffffffffffffffffff1673ffffffffffffffffffffffffffffffffffffffff168152602001908152602001600020905060008090505b818054905081101561345657826040516020018082805190602001908083835b602083106132c657805182526020820191506020810190506020830392506132a3565b6001836020036101000a0380198251168184511680821785525050505050509050019150506040516020818303038152906040528051906020012082828154811061330d57fe5b9060005260206000209060060201600001604051602001808280546001816001161561010002031660029004801561337c5780601f1061335a57610100808354040283529182019161337c565b820191906000526020600020905b815481529060010190602001808311613368575b505091505060405160208183030381529060405280519060200120141561344957600160003373ffffffffffffffffffffffffffffffffffffffff1673ffffffffffffffffffffffffffffffffffffffff16815260200190815260200160002081815481106133e757fe5b906000526020600020906006020160008082016000613406919061345b565b600182016000613416919061345b565b600282016000905560038201600061342e919061345b565b60048201600061343e919061345b565b600582016000905550505b8080600101915050613283565b505050565b50805460018160011615610100020316600290046000825580601f1061348157506134a0565b601f01602090049060005260206000209081019061349f9190613559565b5b50565b6040518060c001604052806060815260200160608152602001600081526020016060815260200160608152602001600081525090565b828054600181600116156101000203166002900490600052602060002090601f016020900481019282601f1061351a57805160ff1916838001178555613548565b82800160010185558215613548579182015b8281111561354757825182559160200191906001019061352c565b5b5090506135559190613559565b5090565b61357b91905b8082111561357757600081600090555060010161355f565b5090565b9056fea265627a7a72315820349d3a1944f272f67c62c3fc109da3546b6bd7550a6295aee44c6bb169eba01c64736f6c63430005100032",
  "source": "pragma solidity >=0.4.21 <0.7.0;\r\n\r\ncontract Zap{\r\n    \r\n    string public name = 'Zap';\r\n    \r\n    \r\n    struct File {\r\n        string fileId;\r\n        string fileHash;\r\n        uint fileSize;\r\n        string fileType;\r\n        string fileName;\r\n        uint uploadTime;\r\n    }\r\n    \r\n\r\n    \r\n    mapping(address => File[]) public users;\r\n\r\n    mapping(address => File[]) public shares;\r\n    \r\n    \r\n     event FileUploaded(\r\n        string fileId,\r\n        string fileHash,\r\n        uint fileSize,\r\n        string fileType,\r\n        string fileName,\r\n        uint uploadTime\r\n  );\r\n\r\n       event FileShareUploaded(\r\n        string fileId,\r\n        string fileHash,\r\n        uint fileSize,\r\n        string fileType,\r\n        string fileName,\r\n        uint uploadTime\r\n  );\r\n  \r\n  constructor() public {\r\n  }\r\n    \r\n  function uploadFile(string memory _fileId,string memory _fileHash, uint _fileSize, string memory _fileType, string memory _fileName) public returns(string memory,string memory,uint, string memory,string memory,uint) {\r\n\r\n    require(bytes(_fileHash).length > 0);\r\n    require(bytes(_fileId).length > 0);\r\n\r\n    require(bytes(_fileType).length > 0);\r\n\r\n    require(bytes(_fileName).length > 0);\r\n\r\n    require(msg.sender!=address(0));\r\n\r\n    require(_fileSize>0);\r\n    \r\n    users[msg.sender].push(File(_fileId,_fileHash, _fileSize, _fileType, _fileName, now));\r\n\r\n\r\n    emit FileUploaded(_fileId,_fileHash, _fileSize, _fileType, _fileName,now);\r\n\r\n\r\n    uint length = users[msg.sender].length;\r\n\r\n    File memory file = users[msg.sender][length-1];\r\n      \r\n    return (file.fileId,file.fileHash,file.fileSize,file.fileType,file.fileName,file.uploadTime);\r\n  }\r\n  \r\n  function getCount() public view returns(uint){\r\n      \r\n    return users[msg.sender].length;\r\n  }\r\n  \r\n  function getFilesofUser(uint _index) public view returns(string memory,string memory,uint, string memory,string memory,uint) {\r\n      \r\n      \r\n      require(_index>=0);\r\n      \r\n      File memory file = users[msg.sender][_index];\r\n      \r\n      return (file.fileId,file.fileHash,file.fileSize,file.fileType,file.fileName,file.uploadTime);\r\n    \r\n  }\r\n\r\n    function removeHash(string memory _fileId) public {\r\n      \r\n         File[] storage f = users[msg.sender];\r\n  \r\n         for (uint i = 0; i < f.length; i++) {\r\n             if (keccak256(abi.encodePacked(f[i].fileId)) == keccak256(abi.encodePacked(_fileId))) {\r\n              \r\n               delete users[msg.sender][i];\r\n                 \r\n             }\r\n             \r\n         }\r\n  }\r\n\r\n  function uploadShareFile(address _to,string memory _fileId,string memory _fileHash, uint _fileSize, string memory _fileType, string memory _fileName) public returns(string memory,string memory,uint, string memory,string memory,uint) {\r\n\r\n    require(bytes(_fileHash).length > 0);\r\n    require(bytes(_fileId).length > 0);\r\n\r\n    require(bytes(_fileType).length > 0);\r\n\r\n    require(bytes(_fileName).length > 0);\r\n\r\n    require(msg.sender!=address(0));\r\n\r\n    require(_fileSize>0);\r\n    \r\n    users[_to].push(File(_fileId,_fileHash, _fileSize, _fileType, _fileName, now));\r\n\r\n\r\n    emit FileShareUploaded(_fileId,_fileHash, _fileSize, _fileType, _fileName,now);\r\n\r\n\r\n    uint length = users[_to].length;\r\n\r\n    File memory file = users[_to][length-1];\r\n      \r\n    return (file.fileId,file.fileHash,file.fileSize,file.fileType,file.fileName,file.uploadTime);\r\n  }\r\n  \r\n  function getShareCount(address _address) public view returns(uint){\r\n      \r\n    return users[_address].length;\r\n  }\r\n  \r\n  function getFilesofUser(uint _index,address _address) public view returns(string memory,string memory,uint, string memory,string memory,uint) {\r\n      \r\n      \r\n      require(_index>=0);\r\n      \r\n      File memory file = users[_address][_index];\r\n      \r\n      return (file.fileId,file.fileHash,file.fileSize,file.fileType,file.fileName,file.uploadTime);\r\n    \r\n  }\r\n\r\n    function removeShareHash(string memory _fileId,address _address) public {\r\n      \r\n         File[] storage f = users[_address];\r\n  \r\n         for (uint i = 0; i < f.length; i++) {\r\n             if (keccak256(abi.encodePacked(f[i].fileId)) == keccak256(abi.encodePacked(_fileId))) {\r\n              \r\n               delete users[_address][i];\r\n                 \r\n             }\r\n             \r\n         }\r\n  }\r\n    \r\n}",
  "sourcePath": "E:/Development/zap/contracts/Zap.sol",
  "compiler": {
    "name": "solc",
    "version": "0.5.16+commit.9c3226ce.Emscripten.clang"
  },
  "schemaVersion": "3.3.2",
  "updatedAt": "2020-11-27T10:19:16.078Z",
  "networkType": "ethereum",
  "devdoc": {
    "methods": {}
  },
  "userdoc": {
    "methods": {}
  }
}